:020000040800F2
:10000000584B0020E90200081B26000821230008A5
:10001000192600082F060008952D00080000000092
:10002000000000000000000000000000290200089D
:100030001907000800000000850200084928000890
:100040000303000803030008030300080303000878
:100050000303000803030008030300080303000868
:100060000303000803030008030300080303000858
:1000700085060008030300080303000803030008C3
:100080000303000803030008030300080303000838
:1000900031060008030300080303000803030008F7
:1000A00005290008030300080303000803030008F0
:1000B0000303000803030008030300080303000808
:1000C00003030008030300080303000803030008F8
:1000D00003030008812C000803030008B12C00086A
:1000E00003030008030300080303000803030008D8
:1000F00003030008030300080303000803030008C8
:1001000003030008030300080303000803030008B7
:1001100003030008030300080303000803030008A7
:100120000303000803030008030300080303000897
:100130000303000803030008030300080303000887
:100140000303000803030008030300080303000877
:10015000030300080303000891060008652D00084A
:100160000303000803030008030300080303000857
:100170000303000803030008030300080000000055
:10018000030300080303000800F002F800F03CF845
:100190000AA090E8000C82448344AAF10107DA45E2
:1001A00001D100F031F8AFF2090EBAE80F0013F0F8
:1001B000010F18BFFB1A43F001031847D448000091
:1001C000F4480000103A24BF78C878C1FAD8520722
:1001D00024BF30C830C144BF04680C6070470000C1
:1001E0000023002400250026103A28BF78C1FBD840
:1001F000520728BF30C148BF0B6070471FB503F0DE
:10020000C7FF1FBD10B510BD00F0DCF91146FFF7A8
:10021000F5FF03F083F900F0FAF903B4FFF7F2FFFA
:1002200003BC00F0FDF900002C4B19680868B0E829
:10023000F04F80F30988BFF36F8F4FF0000080F319
:10024000118870470000000008480068006880F3CB
:1002500008884FF0000080F3148862B661B6BFF3DF
:100260004F8FBFF36F8F00DF00BF00BF08ED00E0CE
:10027000DFF80C00016841F470010160704700BFB5
:1002800088ED00E0EFF30980BFF36F8F134B1A681E
:100290001EF0100F08BF20ED108A20E9F04F10600B
:1002A00009B44FF0500080F31188BFF34F8FBFF3B4
:1002B0006F8F03F081FD4FF0000080F3118809BCBF
:1002C00019680868B0E8F04F1EF0100F08BFB0ECD6
:1002D000108A80F30988BFF36F8F704740000020B9
:1002E000EFF3058070470000094880470948004740
:1002F000FEE7FEE7FEE7FEE7FEE7FEE7FEE7FEE7D6
:10030000FEE7FEE704480549054A064B7047000032
:10031000F52800088901000858450020584B0020A6
:1003200058470020584700209FED1A1AF5EE000AA2
:1003300040EE010ABDEEE00AF5EEC00A10EE100A2A
:10034000F1EE10FA38BF401E00EE100A1349F7EE26
:10035000001AB8EEC00A30EEC00ADFED0F0A20EE38
:10036000200AFCEEC00A10EE900AC0F3080000EE6E
:10037000900A01EB8000F8EE600A90ED011A70EE31
:10038000600A90ED000A71EEE01A21EE800A00EE9C
:10039000810A704783F9223E00000044544200085D
:1003A000DFED190AB5EEC00A60EE200ABDEEE01AD4
:1003B00011EE100AF1EE10FA38BF401E00EE100ADE
:1003C0001349F7EE001AB8EEC00A30EEC00ADFEDAE
:1003D0000F0A60EE200ABCEEE00A10EE100AC0F32D
:1003E000080000EE100A01EB8000B8EE400A90ED24
:1003F000011A70EEC00A90ED000A71EEE01A21EECB
:10040000800A00EE810A704783F9223E0000004412
:100410005442000853EA020C00F069802DE9F04BC9
:100420004FF00006002B1FBFB3FA83F503FA05F463
:1004300024FA05F65E4012BF1643B2FA82F502FABC
:1004400005F4C5F120051EBF22FA05FC44EA0C04A0
:10045000203556EA044C4FEA144418BF641C4FF090
:1004600000084FF00009904271EB030C39D30029CA
:1004700019BFB1FA81F701FA07F6B0FA80F700FA6E
:1004800007F6C7F120071EBF20FA07FC46EA0C0654
:100490002037B6FBF4FCA7EB0507103F07F01F0B56
:1004A000CBF120060CFA0BFB2CFA06F644BFB34640
:1004B0000026202FA4BF5E464FF0000B5BEA060C1F
:1004C00008BF4FF0010B19EB0B09ABFB027C48EBAB
:1004D0000608C01B06FB02CC0BFB03CC71EB0C0126
:1004E000C1E70B46024641464846BDE8F08B13B5CE
:1004F0004FF000004FF00001AFF30080BDE81C405A
:10050000704710B5203AC0F00B80B1E81850203A7F
:10051000A0E81850B1E81850A0E81850BFF4F5AFA3
:100520005FEA027C24BFB1E81850A0E8185044BF2D
:1005300018C918C0BDE810405FEA827C24BF51F89A
:10054000043B40F8043B08BF7047D20728BF31F88E
:10055000023B48BF11F8012B28BF20F8023B48BFDF
:1005600000F8012B70474FF0000200B51346944687
:100570009646203922BFA0E80C50A0E80C50B1F1FB
:100580002001BFF4F7AF090728BFA0E80C5048BF0F
:100590000CC05DF804EB890028BF40F8042B08BFAD
:1005A000704748BF20F8022B11F0804F18BF00F8A9
:1005B000012B704770477047704700000048704734
:1005C000F44400207546FFF7F9FFAE460500694682
:1005D000534620F00700854618B020B5FFF792FE7D
:1005E000BDE820404FF000064FF000074FF0000834
:1005F0004FF0000B21F00701AC46ACE8C009ACE8B5
:10060000C009ACE8C009ACE8C0098D46704710B518
:100610000446AFF300802046BDE81040FFF7FDBD63
:1006200001491820ABBEFEE7260002007047FEE736
:10063000014800F0E6B900000C03002038B50E4C6C
:1006400040F2FF1525600025A560E56008252561BD
:100650000A4C050A25706070080AA070E170100A43
:1006600020716271180AA071E3716B46224602493B
:10067000034800F066F838BD8405002029000020FA
:100680000C030020014800F081BC0000DC040020C5
:10069000014800F07BBC00007C04002001681823A6
:1006A000CAB2103AB2FBF3F2054B6FF30901032A09
:1006B0009B5CC36500D9091D816508467047000031
:1006C0003442000810B5014600208B698A6A4FF059
:1006D000C07453B1B3F5005F15D072B1012A0CD0CC
:1006E000022A0AD0032A09D104E01AB1012A06D04D
:1006F000022A03D1C96AC90100D5012010BDC96A07
:10070000A142FAD010BD002AF7D0012AF2D0022A65
:10071000F3D0032AF3D010BD704772B6FEE790F80D
:100720002020012A07D0022A05D0416A41F4802105
:10073000416201207047006842690A43426100201B
:100740007047F0B590F820500468A468012D05D0DA
:10075000022D03D0416A41F480214DE014F0406F36
:1007600001D1E50045D5C4F301640125A5401D6014
:100770008D684FF4C0739DB1CE6835434E6845EA2D
:10078000C605066803EB0417F5514FF4C2750768F8
:1007900005EB04150E697E51097D012905D009E09C
:1007A0000E88CD6845EA4655EBE701684E5946F498
:1007B00080764E511179D2F805504FF4C67641EA51
:1007C0000521056806EB0416A9511178D2F801201D
:1007D0004FF4C47541EA0221026805EB041551513A
:1007E000006803EB0411425842F00102425000201D
:1007F000F0BD416A41F4001141620120F0BD0000EA
:1008000010B590F82020012A07D0022A05D0416AAD
:1008100041F480214162012010BD3B48D0F8002204
:1008200042F00102C0F80022D0F8002222F47C52EB
:10083000C0F80022D0F800224B6A42EA0322C0F836
:1008400000220A7D02F01F0301229A40D0F81C32D8
:100850009343C0F81C32CB69B3B9D0F80C32934340
:10086000C0F80C328C894B6864F31F434C6900EB71
:10087000C404C4F840320C890B6864F31F434C690C
:1008800000EBC404C4F84432CB69012B16D1D0F874
:100890000C321343C0F80C320C884B6864F31F43CE
:1008A0004C6900EBC404C4F840320C89CB6864F393
:1008B0001F434C6900EBC404C4F844328B69002B1D
:1008C000D0F804320ED01343C0F804320B69002B69
:1008D000D0F8143208D01343C0F81432096A012941
:1008E00004D008E09343EFE79343F5E7D0F81C12F8
:1008F0001143C0F81C12D0F8001221F00101C0F819
:100900000012002010BD000000640040704770B568
:1009100090F82040012C05D0022C03D0416A41F40C
:10092000802128E0046809B32469A40720D04FF48B
:10093000D874056804EB01142D5915F00405956071
:1009400005682D591AD0ED08556005682C5904F03A
:100950000204D4604FF4DA74056804EB01142E59D4
:1009600006F00F06082E0CD308250DE0E468DCE73E
:10097000416A41F400114162012070BD6D0D1560A6
:10098000E3E72D5905F00F05156105682D59C5F3ED
:100990000725956105682C59240C54614FF4DC72CD
:1009A000046802EB0112A4581C700468A458240ABD
:1009B0005C700468A458240C9C700468A258120E41
:1009C000DA704FF4DE72046802EB0112A4581C7155
:1009D0000468A458240A5C710468A458240C9C710F
:1009E0000468A258120EDA71006829B1016941F059
:1009F00020010161002070BDC16841F02001C1608B
:100A0000F8E72DE9F05F0546006800244669D0F854
:100A100004908768D0F80CB0D0F810A0D0F81880F7
:100A2000F10748D0F90714D001218160B80703D538
:100A3000284600F04AFA0CE0780702D54FF400642B
:100A400007E0380702D54FF4805402E0284600F052
:100A50003BFAF80516D529684FF480708860B80510
:100A600003D5284600F033FA0CE0780502D544F4AB
:100A7000005407E0380502D544F4804402E02846DB
:100A800000F024FAF80316D529684FF48030886006
:100A9000B80303D5284600F01CFA0CE0780302D511
:100AA00044F4004407E0380302D544F4803402E003
:100AB000284600F00DFA300707D55FEACB6004D571
:100AC0002968102044F40074C86070074FF00807CC
:100AD00007D55FEA0B7004D52868C760284600F088
:100AE00093F9B00706D52868C068800702D0284669
:100AF00000F08CF9700607D55FEACA6004D5296852
:100B0000102044F480640861B00607D55FEA0A70DB
:100B100004D528680761284600F0A6F9F00606D536
:100B200028680069800702D0284600F09EF9B003CB
:100B300008D55FEAC96005D52968102048602846B5
:100B400000F094F9F00307D55FEA097004D528682E
:100B50004760284600F0BEF9300446D55FEA497088
:100B600040D5F00504D55FEAC87001D044F0010417
:100B7000B00504D55FEA887001D544F00204700521
:100B800004D55FEA487001D544F00404300529D546
:100B900018F0700F26D008F07000402815D006DC41
:100BA000102809D020280AD0302816D10AE0502871
:100BB0000ED0602811D10EE044F008040DE044F09E
:100BC00010040AE044F0200407E044F0400404E08C
:100BD00044F0800401E044F480742868816921F0C5
:100BE00070018161296804204860002C05D0686A82
:100BF000204368622846FFF789FEBDE8F09F70B584
:100C0000040003D094F8200010B104E0012070BD6E
:100C1000204600F081F82068016841F00101016080
:100C200000F0FEFB0546052604E000F0F9FB401B42
:100C30000A2811D820684068C007F6D020680168EB
:100C400021F00201016000F0EBFB05460BE000F033
:100C5000E7FB401B0A2806D9606A40F40030606256
:100C600084F82060D2E7206840688007EFD4207EB7
:100C70000128206801683DD021F080010160607E7C
:100C800001282068016838D021F040010160A07E71
:100C900001282068016833D021F020010160E07E46
:100CA0000128206801682ED041F010010160207FEA
:100CB00001282068016829D021F008010160607FC7
:100CC00001282068016824D021F004010160D4E9E2
:100CD00002010843D4E90412114308436168491E24
:100CE00008432168C86100206062012084F8200068
:100CF000002070BD41F08001C0E741F04001C5E730
:100D000041F02001CAE721F01001CFE741F00801CE
:100D1000D4E741F00401D9E7F0B587B004461421C7
:100D20006846FFF720FC334B3348DFF8C4E019680E
:100D3000D4F800C0304A03250226092710300024C9
:100D4000491CF44525D11960012907D1016841F0FA
:100D500000710160006800F000700590106840F0BC
:100D6000080010601068CDE9005600F00800CDE9D9
:100D7000047069462148CDE9024500F053FA00228B
:100D80000521142000F0BEFB142000F0ADFB07B0DD
:100D9000F0BDDFF86CE0F445F9D1D0F800C04CF0BC
:100DA000806CC0F800C0D0F800C001290CF0806C45
:100DB000CDF814C0196007D1016841F000710160DD
:100DC000006800F000700590106840F002001060AC
:100DD000106802AB00F0020005906020CDE900062B
:100DE00083E8B0006946074800F01CFACFE700002E
:100DF000006400401800002030380240000C02401F
:100E000000680040000402407047000000B58BB04D
:100E100001AB03AA0021FFF77AFD0398A0F201209D
:100E200006281AD80E49C0B200EB800208700D499E
:100E300001EB420031F812300381BDF804305BBA97
:100E400021F81230BDF8061049BA4180BDF80810EB
:100E500049BA81809DF80A1081710BB000BD000075
:100E6000280000203C0500207047704770470000B4
:100E700070B5044690F82000012804D0606A40F460
:100E80000020606218E0022084F8200020680168D9
:100E900021F00101016000F0C3FA05460EE000BF39
:100EA00000F0BEFA401B0A2808D9606A40F40030FE
:100EB0006062052084F82000012070BD2068406831
:100EC000C007EDD1606270BD7047704770477047D2
:100ED0007047704770472DE9F0410446876D00F078
:100EE0009FFA064694F835000025022806D0802097
:100EF000606584F834500120BDE8F0812068016805
:100F000021F0160101602068416921F080014161F2
:100F1000206C08B9A06C20B12068016821F008019C
:100F200001602068016821F0010101600CE000F01F
:100F300077FA801B052807D920206065032084F8F4
:100F4000350084F83450D7E720680068C007EED138
:100F500094F85C103F208840B860012084F8350088
:100F600084F834500020C7E790F83510022903D0E8
:100F70008021416501207047052180F83510006807
:100F8000016821F001010160002070472DE9F8435C
:100F900004464FF00009CDF8009063484FF4165115
:100FA000A56D0068B0FBF1F72E6894F85C1008207E
:100FB00000FA01F131420FD021680A6852070BD5BF
:100FC0000A6822F004020A6094F85C108840A86065
:100FD000606D40F00100606594F85C104FF001080E
:100FE00008FA01F0304208D021684969090604D5A1
:100FF000A860606D40F00200606594F85C10042009
:101000008840304208D021680968890704D5A86063
:10101000606D40F00400606594F85C10102088401A
:10102000304218D021680968090714D5A8602068E3
:101030000168490304D50068000308D5A16C07E0E6
:101040000168C90503D4016821F008010160216C21
:1010500009B12046884794F85C102020884030422F
:1010600031D021680968C9062DD5A86094F83500EB
:1010700005282068016806D0490347D500680003A9
:101080001DD4616C1CE021F01601016020684169EB
:1010900021F080014161206C08B9A06C20B120686A
:1010A000016821F00801016094F85C103F2088403D
:1010B000A86084F8358084F83490216D1FE0E16BDE
:1010C00009B120468847606D00282BD0606DC007AD
:1010D00014D0052084F835002068016821F0010152
:1010E00001600098401C0090B84203D82068006856
:1010F000C007F6D184F8358084F83490E16C00297B
:1011000010D001B02046BDE8F04308470168C9058A
:10111000D5D4016821F01001016084F8358084F88D
:101120003490CCE7BDE8F8833C0000202DE9F04185
:10113000044600F075F906465CB1022084F83500DB
:10114000002584F834502068016821F00101016015
:101150000DE00120BDE8F08100F062F9801B052858
:1011600005D920206065032084F83500F2E7206867
:101170000068C007F0D12268116820480140D4E916
:1011800001031843D4E90336334318436369184312
:10119000A3691843E3691843236A18430843616A43
:1011A000042903D1D4E90B131943084310602068C4
:1011B0004069666A20F0070130460E430127042883
:1011C0000CD1A06A0643E06A40B12046FFF77AFAE4
:1011D00020B14020606584F83570BAE72068466128
:1011E0002046FFF75BFA94F85C203F219140816034
:1011F000656584F835700020ACE700003F8010F092
:1012000070B5044600F00CF90546601C02D0044895
:101210000078044400F004F9401BA042FAD370BDEA
:101220001C0000202DE9F84FDFF8BCA100220125A9
:1012300003264FF00F090AF1040BAAF1040E00BFB8
:101240000B6805FA02F42340A34270D10F7907F02E
:101250000307012F01D0022F16D187684FEA4208F9
:1012600006FA08FC27EA0C07D1F80CC00CFA08FCB7
:101270004CEA070CC0F808C04768A7430C79C4F3D0
:10128000001494403C4344600C79E443A4070AD022
:10129000C4684FEA420C06FA0CF7BC438F6807FAA1
:1012A0000CF72743C7600C7904F00304022C12D119
:1012B000D40800EB840CDCF820405707FF0E09FA35
:1012C00007F824EA0804D1F8108008FA07F848EA79
:1012D0000408CCF8208004684FEA420C06FA0CF7A8
:1012E000BC430F7907F0030707FA0CF727430760A1
:1012F0004C6814F4403F70D03C4C276847F480475A
:101300002760246822F0030704F480440094384CDA
:1013100007EB040CDCF8084897074FEA177809FA3E
:1013200008F7BC43334FB84202D1002724E054E011
:10133000314FB84201D101271EE0304FB84201D1F0
:10134000022719E02E4FB84201D1032714E02D4F98
:10135000B84201D104270FE02B4FB84201D1052735
:101360000AE02A4FB84201D1062705E0284FB842CB
:1013700001D1072700E0082707FA08F72743CCF830
:101380000878DAF800405746D1F804C09C435FEA79
:10139000CC2C00D51C433C60DBF800405F46D1F804
:1013A00004C09C435FEA8C2C00D51C433C60DEF8F3
:1013B00000407746D1F804C09C435FEA8C3C00D5DE
:1013C0001C433C60084F083F3C68D1F804C09C4374
:1013D0005FEACC3C00D51C433C60521C102AFFF451
:1013E0002FAFBDE8F88F0000083C014044380240B0
:1013F00000300140000002400004024000080240AA
:10140000000C02400010024000140240001802408C
:10141000001C02400AB1816170470904FBE700002B
:1014200001488068704700001C0000200248816865
:1014300002781144816070471C0000200B4810B5F1
:10144000016841F400710160016841F4806101604C
:10145000016841F480710160032000F073F80F20EF
:1014600000F006F800F024F8002010BD003C024017
:1014700070B50D4D04464FF47A712878B1FBF0F049
:101480000A490968B1FBF0F000F010FB48B9102CD4
:1014900007D200222146501E00F034F800206C6074
:1014A00070BD012070BD00001C0000203C00002029
:1014B0000C4882B0016841F480410160006800F48A
:1014C000804000900748001F016841F08051016092
:1014D0000068002200F0805000900F21901E02B0A2
:1014E00000F010B844380240002809DB00F01F0269
:1014F000012191404009800000F1E020C0F8001176
:1015000070470000F0B40E4B1B680C46C3F3022377
:10151000C3F10705042D00D90425191D072901D29F
:10152000002300E0DB1E012606FA05F1491E2140DA
:1015300099409E40761E16403143F0BC01F02BBC12
:101540000CED00E0064900F0070208684FF6FF03C3
:10155000184040EA0220034A104308607047000028
:101560000CED00E00000FA052DE9F0470E460500FD
:1015700065D0DFF81481D8F80000F7B200F007005A
:10158000B04207D288F80070D8F8000000F00700D9
:10159000B04254D128683D4C810712D5400703D58D
:1015A000206840F4E05020602878000703D52068C8
:1015B00040F4604020602068A96820F0F0000843F3
:1015C00020602878C0072DD0304968680839012884
:1015D00012D0022813D0032811D0096889070029E6
:1015E0002DDA216821F0030101432160FFF718FF84
:1015F000814641F2883A0EE009688903EFE70968FD
:101600008901ECE7FFF70CFFA0EB0901514502D976
:101610000320BDE8F0872068696800F00C00B0EB9B
:10162000810FEFD1D8F80010404601F00701B14218
:1016300007D90770006800F00700B04201D0012010
:10164000E7E72878400705D52068E96820F4E050EE
:10165000084320602878000706D52068296920F40F
:10166000604040EAC100206000F038F82168084A74
:10167000C1F30311515CC840064908600648006880
:10168000FFF7F6FE0020C4E7003C024008380240A5
:101690003C4200083C00002020000020044805498E
:1016A00000680968044AC1F38221515CC840704750
:1016B0003C000020083802404C420008044805491C
:1016C00000680968044AC1F34231515CC840704760
:1016D0003C000020083802404C420008154810B574
:1016E000006810F00C02144813D01449042A0FD0DB
:1016F000082A0ED10F4C241F2268236802F03F02F3
:101700005B0207D52068C0F38810A0FB010106E04A
:10171000084610BD2168C1F38811A1FB0001002318
:10172000FEF778FE2168C1F30141491C4900B0FB76
:10173000F1F010BD083802400024F400001BB7008F
:101740002DE9F84F04006ED02078DFF84C93C007E5
:10175000A9F104054AD009F104000168C1F381012F
:10176000012908D00068C0F3810002280AD1D9F805
:101770000000400206D52868800337D5606800283D
:10178000E1D033E06068B0F5803F10D0B0F5A02F15
:10179000286810D020F480302860286820F4802049
:1017A00028606068A8B1FFF73BFE06460DE0286898
:1017B00040F48030F4E740F480202860F7E700BF71
:1017C000FFF72EFE801B642873D828688003F7D5A6
:1017D0000CE0FFF725FE064605E000BFFFF720FE00
:1017E000801B6428F0D828688003F7D42078DFF8BD
:1017F000AC8280074FF0000A3ED5A748001D016863
:1018000011F00C0F08D00068C0F3810002280BD142
:10181000D9F80000400207D42868800716D5E06890
:10182000012800D112E033E1E068B8B10120C8F826
:101830000000FFF7F5FD064605E000BFFFF7F0FDED
:10184000801B0228C0D828688007F7D5286821693E
:1018500020F0F80040EAC10028600DE0C8F800A0C0
:10186000FFF7DEFD064604E0FFF7DAFD801B0228E5
:101870001FD828688007F7D42078000722D5864F24
:1018800087486169703771B101210160FFF7C8FDB8
:10189000064604E0FFF7C4FD801B022809D838681B
:1018A0008007F7D50EE0C0F800A0FFF7B9FD0646A7
:1018B00005E082E0FFF7B4FD801B02287DD8386880
:1018C0008007F7D42078400768D5DFF8CCB100272F
:1018D0000BF13C0BDBF80000C0000BD4DBF8001070
:1018E00041F08051CBF80010DBF80000012700F038
:1018F000805000906B4E3068C00510D4306840F4C2
:1019000080703060FFF78CFD009005E0FFF788FDE8
:101910000099401A022850D83068C005F6D55E4EAE
:10192000A0686C3601280FD00528306810D020F050
:1019300001003060306820F004003060A068B8B169
:10194000FFF76EFD00900FE0306840F00100F4E713
:1019500040F004003060F7E7FFF762FD0099411A9C
:1019600041F28830814266D830688007F4D50EE0B5
:10197000FFF756FD009007E0FFF752FD0099411A6E
:1019800041F28830814256D830688007F4D42FB1B4
:10199000DBF8001021F08051CBF80010A069C8B32B
:1019A0003D49091D0968C1F3810102294AD0022875
:1019B000504607D0C8F8600000E03CE0FFF730FD7B
:1019C00004463BE04746C8F86000FFF729FD06469D
:1019D00005E000BFFFF724FD801B02282BD82868F4
:1019E0008001F7D4D4E907010843A16A2E4A4908C7
:1019F00002EB0141626A41EA8211084394F82C101B
:101A000040EA0161C9F8001001203866FFF708FDBF
:101A1000044606E03EE000BFFFF702FD001B02287F
:101A200009D828688001F7D534E000BFFFF7F8FC3B
:101A3000001B022802D90320BDE8F88F2868800126
:101A4000F4D427E00128F7D0D9F80000E26900F4C7
:101A5000800191421CD1226A00F03F01914217D1CE
:101A600047F6C071626A0140B1EB821F10D1A26AD1
:101A70004FF0FF3300F4403103EB5202B1EB024F61
:101A800006D194F82C1000F07060B0EB016F01D01B
:101A90000120D1E70020CFE7043802400000474290
:101AA000800E4742007000400000FFFF10B5401E4E
:101AB000B0F1807F01D3012010BD4FF0E0246061C0
:101AC0000F21601701F067F90020A0610720206155
:101AD000002010BD7047704710B5040003D094F883
:101AE0003D0010B107E0012010BD002084F83C004B
:101AF000204600F01FF8022084F83D00211D2068D8
:101B000000F006FF012084F8460084F83E0084F8C7
:101B10003F0084F8400084F8410084F8420084F8D3
:101B2000430084F8440084F8450084F83D00002018
:101B300010BD000008B500680B49884212D10B485F
:101B4000016841F4803101600068002200F48030B7
:101B5000009005211820FFF7D5FCBDE808401820AB
:101B6000FFF7C2BC08BD00000040014044380240FD
:101B700090F83D10012901D001207047022180F822
:101B80003D1000681149884214D0B0F1804F11D047
:101B90000F4988420ED00F4988420BD00E49884227
:101BA00008D00E49884205D00D49884202D00D491F
:101BB000884204D1816801F00701062903D0016839
:101BC00041F0010101600020704700000000014069
:101BD0000004004000080040000C004000040140E8
:101BE000004001400018004090F83D10012901D04C
:101BF00001207047022180F83D100168CA6842F058
:101C00000102CA6000681149884214D0B0F1804FC7
:101C100011D00F4988420ED00E4988420BD00E4990
:101C2000884208D00D49884205D00D49884202D02B
:101C30000C49884204D1816801F00701062903D0CC
:101C4000016841F00101016000207047000001407F
:101C50000004004000080040000C00400004014067
:101C6000004001400018004070B5044690F83C0068
:101C70000025012817D0012684F83C60022084F852
:101C80003D002068826822F0770222F47F42826061
:101C90000868502838D00DDC20284FD005DC90B3E0
:101CA000102811D14AE0022070BD302846D04028CB
:101CB0000AD13BE060282FD070280DD0B0F5805FAE
:101CC00003D0B0F5005F12D0012584F83D600020FC
:101CD00084F83C00284670BDCB68D1E9012120681A
:101CE00000F082FE2068816841F0770109E0CB684E
:101CF000D1E90121206800F077FE2068816841F475
:101D000080418160E1E719E0CA684968206800F015
:101D10007DFE5021206806E0CA684968206800F00E
:101D200086FE6021206800F069FECEE7CA68496837
:101D3000206800F06BFE40212068F4E7226801462D
:101D40001046F0E770472DE9F04104460068C66888
:101D500005694FF00007A90713D5B10711D5F91E82
:101D6000016101202077206880698007204602D029
:101D7000FFF7E8FF04E000F07EF8204600F07CF872
:101D80002777680716D5700714D521686FF004000F
:101D90000861022020772068806910F4407F204687
:101DA00002D0FFF7CFFF04E000F065F8204600F016
:101DB00063F82777280715D5300713D521686FF00A
:101DC00008000861042020772068C0698007204649
:101DD00002D0FFF7B7FF04E000F04DF8204600F016
:101DE0004BF82777E80616D5F00614D521686FF072
:101DF00010000861082020772068C06910F4407F37
:101E0000204602D0FFF79EFF04E000F034F82046A1
:101E100000F032F82777E80708D0F00706D02168ED
:101E20006FF001000861204600F027F8280608D569
:101E3000300606D521686FF0800008612046FFF764
:101E400049FE680608D5700606D521686FF0400087
:101E50000861204600F012F8A8060AD5B00608D599
:101E600021686FF0200008612046BDE8F041FFF7CF
:101E700032BEBDE8F08170477047704770477047C9
:101E800070470000F8B5016804460868CA684B69E5
:101E900010F00F0F4FF0000559D003F0010602F4C7
:101EA0009077374365D0C10705D0D10503D5616C64
:101EB00041F001016164410705D5D90703D0616C88
:101EC00041F002016164810705D5D90703D0616C37
:101ED00041F004016164010707D502F0200131439C
:101EE00003D0616C41F008016164616C00293AD053
:101EF000800604D5900602D5204600F0D9FD206862
:101F00004069616CC0F38010090700D460B32046BB
:101F100000F0A7FD20684069400621D520681430F4
:101F200050E8001F21F0400140E80012002AF5D1DE
:101F3000E06BA8B16E490165E06BFFF715F800286A
:101F400011D0E06B016D01B0BDE8F0400847830699
:101F50000FD593060DD52046BDE8F84000F0A8BD8A
:101F60002046FFF78DFFF8BD2046FFF789FF656427
:101F7000F8BD266B2023012E7DD1C6067BD5D60663
:101F800079D508684868009048694FF00206400615
:101F900041D5E16B086840680004000CE8D0A28DD0
:101FA0008242E5D9E085C869B0F5807F2DD02068F0
:101FB0000C3050E8001F21F4807140E80012002A24
:101FC000F5D12068143050E8001F21F0010140E8ED
:101FD0000012002AF5D12068143050E8001F21F0CB
:101FE000400140E80012002AF5D184F84230256310
:101FF00020680C3050E8001F21F0100140E800126A
:10200000002AF5D1E06BFEF766FF6663A08DE18DD7
:10201000401A81B22AE0A08DE18D401A81B2E08D94
:102020000028A5D00029A3D022680C3252E8000F66
:1020300020F4907042E80007002FF5D1206814309A
:1020400050E8002F22F0010240E80027002FF5D1D0
:1020500084F84230256320680C3050E8002F22F0CD
:10206000100240E80023002BF5D166632046FFF7FD
:1020700006FFF8BDFFE705062BD5150629D594F810
:1020800041002128F5D1A068B0F5805F01D1206919
:10209000B0B1206A411C2162216800784860E08C60
:1020A000401E0004000CE084E3D12068C16821F0E8
:1020B0008001C1602068C16841F04001C160D8E77B
:1020C000206A0088C0F308004860206A801C2062F3
:1020D000E5E74006CDD55006CBD5CA68204622F0AC
:1020E0004002CA6084F8413000F019F9C1E70000ED
:1020F000532A000870B5040004D094F8410000256C
:1021000010B106E0012070BD84F84050204600F078
:1021100023F8242084F841002068C16821F400518C
:10212000C160204600F026FD2068016921F490413D
:1021300001612068416921F02A0141612068C1687C
:1021400041F40051C1606564202084F8410084F8A6
:1021500042006563002070BD2DE9F04F87B0054651
:1021600014216846FEF7FFF96248DFF884C12B6846
:102170000024604914380226032707224FF0006923
:102180004FF4806A4FF4403B634548D10B6843F0FD
:1021900010030B60096801F010010591016841F01E
:1021A00002010160016801F002010591016841F03E
:1021B00001010160006802AB00F001000590802081
:1021C000CDE90006904683E8900169464A48FFF74A
:1021D00029F83002CDE9000602AB694683E8900198
:1021E0004648FFF71FF8474E4548E6E802094020F9
:1021F000A6E81104434846F81449B461C6E9074B00
:102200007462FEF793FF08B1FEF787FAAE6300220F
:1022100005212520B563FFF775F925203CE0DFF89F
:10222000E8C063453DD13349091F0B6843F480235F
:102230000B60096801F480210591016841F00401F7
:1022400001600068029400F0040005904FF44060C3
:10225000CDE90006CDE9037269462C48FEF7E2FF9E
:10226000284E2B4860363060C6E90194C6E9034A1F
:1022700080157461C6E90640C6E908B43046FEF729
:1022800055FF08B1FEF749FAEE6300220521272029
:10229000B563FFF737F92720FFF726F907B0BDE848
:1022A000F08F1C4A9342F9D10A6842F020020A607A
:1022B000096801F020010591016841F040010160C9
:1022C0000068029400F0400005904FF48440CDE98E
:1022D00000060820CDE9037069460F48FEF7A2FF0B
:1022E000002205214720FFF70DF94720D4E7000021
:1022F0000010014044380240000402400000024047
:10230000B86402407C0400200048004000080240FD
:1023100028600240001401400018024070477047D6
:10232000FEE700000F4810B50D4901600321416030
:1023300000214FF410228160C0E903124FF4001213
:102340004261017641768176C17601774177FEF769
:1023500056FC002803D0BDE81040FEF7DEB910BDE2
:10236000006400400C0300200F4810B50D490160C7
:102370000321416000214FF410228160C0E9031263
:102380004FF400124261017641768176C176017781
:102390004177FEF734FC002803D0BDE81040FEF77B
:1023A000BCB910BD0068004034030020114808B5D6
:1023B000016841F480010160016801F4800100912D
:1023C000016841F4001101600068002200F400106F
:1023D000009005210C20FFF795F80C20FFF784F8FA
:1023E000002205214620FFF78DF8BDE80840462071
:1023F000FFF77AB83038024010B5A4B01C221C494F
:102400006846FEF77EF80021684601F0F1F8194CA5
:1024100017491C2220601C3107A8FEF772F8002122
:1024200007A801F0E5F8124960601C2238310EA8B7
:10243000FEF767F800210EA801F0DAF80C49A06059
:102440001C22543115A8FEF75CF8002115A801F0F4
:10245000CFF80749E0601C2270311CA8FEF751F844
:1024600000211CA801F0C4F8206124B010BD0000B8
:10247000A84100080400002070B586B01421684609
:10248000FEF771F822480024016841F00201016062
:10249000016801F002010591016841F0400101600D
:1024A000016801F040010591016841F001010160FE
:1024B000016801F001010591016841F00801016026
:1024C000016801F008010591016841F00401016013
:1024D000016801F004010591016841F0800101608B
:1024E00000680C4E00F080004FF4E055059001228A
:1024F00029463046FEF78EFF01200095CDE9010404
:10250000694630460394FEF78DFE06B070BD0000AC
:1025100030380240001C02401FB5002111480091D4
:10252000019102910E4A0391026042F2CF02C0E98A
:10253000012140F2CF72C0E903218161FFF7CCFA9B
:1025400008B1FEF7EAF84FF480500090694605485C
:10255000FFF78AFB002801D0FEF7DFF81FBD00005F
:10256000004001405C0300200C4810B50A4901609E
:102570004FF4E1314160002181600C22C160C0E96B
:1025800004128161C161FFF7B5FD002803D0BDE8E9
:102590001040FEF7C2B810BD00100140A403002097
:1025A0000D4810B50B4901600C49416000214FF402
:1025B00080628160C0E903120C22C0E90521C1617B
:1025C000FFF798FD002803D0BDE81040FEF7A5B83E
:1025D00010BD000000480040EC030020A086010070
:1025E0000C4810B50A4901604FF4E1314160002107
:1025F00081600C22C160C0E904128161C161FFF7F2
:1026000079FD002803D0BDE81040FEF786B810BD64
:102610000014014034040020FEE7FEE7A0B1D0ED35
:10262000101AC0ED111A90ED0F1A80ED101AC0EDBE
:10263000060A80ED070A30EEC00A80ED0F0A017825
:1026400029B101293BD078E09FED3D0A7047D0EDDC
:10265000010A60EE801AC0ED091AD0ED0A0A90ED69
:10266000022A42EE000A30EE410AC0ED0A0A90ED5D
:102670000D2A80ED0E2A90ED0C2A80ED0D2A80EDBA
:102680000C0A90ED031A21EE001A80ED0B1A90ED62
:10269000050AF4EEC00AF1EE10FA09DCB1EE400AC8
:1026A000F4EEC00AF1EE10FA02D390ED0A0A01E04E
:1026B00080ED0A0A31EE800A30EE010A2BE070EE5E
:1026C000410A90ED012A20EE822A80ED092AD0ED00
:1026D000020A60EE800AC0ED0A0AD0ED0D2A72EE01
:1026E000200AC0ED0E2AD0ED0C2AC0ED0D2AF0EE26
:1026F000002A01EE620A30EE210A80ED0C0A90ED0C
:10270000031A21EE000A80ED0B0A30EE800AD0EDAC
:10271000080A30EE200A80ED080AD0ED040AB4EE73
:10272000E00AF1EE10FA06DCF1EE600AB4EEE00A1F
:10273000F1EE10FA01D2C0ED080A90ED080A7047D8
:1027400000000000002819D09FED0D0A80ED110A4D
:1027500080ED100A80ED0F0A80ED0E0A80ED0D0A63
:1027600080ED0C0A80ED0B0A80ED0A0A80ED090A63
:1027700080ED080A80ED060A80ED070A7047000028
:1027800000000000002828D0002A26D0017092ED19
:10279000001A80ED011A92ED011A80ED021A92EDF5
:1027A000021A80ED031A80ED040A9FED0C0AC0EDB9
:1027B000050A80ED0E0A80ED0D0A80ED0C0A80ED11
:1027C000080A80ED0B0A80ED0A0A80ED090A80ED07
:1027D000110A80ED100A80ED0F0A7047000000001A
:1027E00030B5144B1C68656945F0400565611B6890
:1027F000DC6844F01004DC600F4B1C68256825F091
:10280000010525601C682568ED07F7D11D680B4C94
:10281000AC601C68E0601868016118684260186864
:10282000016841F4802101601868016841F00101EC
:10283000016030BDEC030020DC04002004480040AF
:10284000012000F0C9FEFBE710B5FEF7EFFD01F037
:10285000C9FB012803D0BDE8104001F055BB10BDF5
:1028600030B593B030216846FDF77DFE14210CA8E9
:10287000FDF779FE1D480025016841F08051016097
:10288000006800F0805011901948016841F48041BF
:1028900001600068022400F4804011900120009043
:1028A000000401908001CDE9064006200890A82090
:1028B000CDE9090404200B906846FEF741FF08B1FA
:1028C00072B6FEE70CA90F2081E831004FF4A0504A
:1028D0000F904FF48050109005210CA8FEF744FE95
:1028E000002801D072B6FEE713B030BD4038024078
:1028F000007000400248016841F4700101607047B7
:1029000088ED00E00148FFF71EBA00005C030020DC
:10291000F0B50268294C2A4D2A4E2B4F2B4B4FF015
:10292000804CA04209D0604507D0A84205D0B042F3
:1029300003D0B84201D0984204D122F0700E4A6808
:1029400042EA0E02A0421BD0604519D0A84217D01F
:10295000B04215D0B84213D0984211D01C4DA842B5
:102960000ED01C4DA8420BD01B4DA84208D01B4DC9
:10297000A84205D01A4DA84202D01A4DA84203D150
:1029800022F44075CA682A434D6922F080022A4326
:1029900002608A68C2620A688262A04201D09842DC
:1029A00001D109690163012141610169C90703D0AE
:1029B000016921F001010161F0BD0000000001404A
:1029C0000004004000080040000C004000040140EA
:1029D0000040014000440140004801400018004010
:1029E000001C00400020004010B5846842EA032229
:1029F00024F47F440A432243826010BD826822F09F
:102A000070020A4342F007018160704710B5036A03
:102A1000046A24F001040462846924F0F00444EAA6
:102A2000021423F00A020A438461026210BD10B549
:102A3000036A046A24F010040462846923F0A0038A
:102A400024F4704444EA023243EA011182610162D3
:102A500010BD10B5806B0021C185C184FFF710FA4D
:102A600010BD01680C3151E8002F22F4907241E84A
:102A70000023002BF5D10168143151E8002F22F01A
:102A8000010241E80023002BF5D1016B012909D196
:102A900001680C3151E8002F22F0100241E80023B8
:102AA000002BF5D1202180F84210002101637047EE
:102AB00008B590F84210222901D0022008BD826892
:102AC0004FF480539A4201D1016921B1816A9A423F
:102AD0001BD04AB10AE00268816A5268C2F3080258
:102AE0000A80816A891C08E0026972B10268526832
:102AF00002F07F020A70816A491C8162C18D491E01
:102B00000904090CC18503D01BE002685268F1E793
:102B10000168CA6822F02002CA600168CA6822F40B
:102B20008072CA6001684A6922F001024A6120216C
:102B300080F8421000214163026B012A03D0FFF7A5
:102B4000EDFB002008BD016301680C3151E8002F46
:102B500022F0100241E80023002BF5D101680A6839
:102B6000D20602D50A6849680091818DFFF787F97E
:102B7000E7E7000070B5044600680169E26821F4E7
:102B80004051114301612169A068E269084361690C
:102B9000114308432168CA6849F20C639A4302430F
:102BA000CA6020684169A26921F440711143416102
:102BB00031492068884202D03049884202D1FEF76C
:102BC0007DFD01E0FEF76AFDE2690023192164251D
:102BD0003226B2F5004F626828D0A0FB0101930FA6
:102BE0009200FDF717FC0146B0FBF5F06FF01802FC
:102BF000504301EB800006EB0010B0FBF5F000F055
:102C0000F002B1FBF5F002EB0012B1FBF5F06FF052
:102C10001803584301EB800006EB0010B0FBF5F001
:102C200000F00F0021681044886070BDA0FB010116
:102C300092185B41FDF7EEFB0146B0FBF5F0020197
:102C4000B1FBF5F06FF01803584301EB800006EB81
:102C5000C000B0FBF5F000F0F80002EB4002B1FB61
:102C6000F5F0584301EB800006EBC000B0FBF5F037
:102C700000F00700D6E700000010014000140140FA
:102C8000094810B5006800684FF480518206074873
:102C900001D5012200E00022FEF7BCFBBDE8104098
:102CA0000148FFF7EFB80000A4030020001C024019
:102CB000264818B400680168890604D50168406890
:102CC000009018BC704722490968C906F9D5016807
:102CD0004068204A0090106801684FF024030C03FC
:102CE0001D49046824F00104046016D41068446887
:102CF000C4F12404A4B20C8043601068016841F45C
:102D0000002101601068016841F001010160122C8E
:102D1000D7D1124901F1160015E014686068C0F1BE
:102D2000240080B2088063600D498B6A23F400237D
:102D30008B6211680A6842F001020A601228C0D151
:102D4000064901F13A0018BC00F0B0BEEC030020C7
:102D500000480040DC0400203A000020B4050020B8
:102D600000600240094810B5006800688106084804
:102D700002D50122C11402E000224FF48051FEF777
:102D800049FBBDE810400148FFF77CB8340400203F
:102D9000001C0240FEE70907090E002804DB00F1D1
:102DA000E02080F80014704700F00F0000F1E020F0
:102DB00080F8141D7047D0ED000AF4EEC00AF1EE61
:102DC00010FA06DCB1EE400AF4EEC00AF1EE10FA99
:102DD00001D280ED000A7047FEE7000000B58BB01D
:102DE00000200121CDE90601089100900190029098
:102DF00003900590049069460C48FDF701FD0B48CF
:102E0000FEF736F802210948FDF789FC0E200990EB
:102E1000059069460648FDF7F3FC0548FEF728F8DB
:102E200002210348FDF77BFC0BB000BD0C03002022
:102E300034030020004870476E05002000487047AA
:102E4000B4050020004870476405002000B5B0EECE
:102E5000412A01003CD081ED040AC1ED030A30EEA5
:102E6000C00A9FED1D1ADFED1D0A00F033FB81ED56
:102E7000050AD1ED000A01F1240060EE800AC1EDDF
:102E8000080AD1ED090A91ED011A41EE000AC1EDDF
:102E9000090A91ED020A20EE020A81ED0A0A91ED7B
:102EA000070AFFF788FF91ED080AD1ED090A01F141
:102EB0002C0030EE200AD1ED0A0A30EE200A81ED16
:102EC0000B0A91ED060AFFF776FF91ED0B0A00BDA4
:102ED0009FED030A00BD0000DB0F4940DB0F49C036
:102EE0000000000000280FD09FED080A80ED040AC2
:102EF00080ED030A80ED050A80ED0A0A80ED090ADB
:102F000080ED080A80ED0B0A704700000000000009
:102F100000280BD080EC031A9FED051A80ED051AEE
:102F200080ED041AC0ED070A80ED060A7047000024
:102F300000000000174B30B41B78DFED170A33B1E7
:102F4000012B0AD0042B06D130BC00F0C1B9C0ED72
:102F5000000AC1ED000A30BC704792ED6D0A0F4CBB
:102F6000B1EE401AB0EEC11A11EE103A9FED0C1AF4
:102F7000A34220EE010A81ED000A02DDC0ED000A45
:102F8000E9E792ED320ADFED070A20EE200A80ED34
:102F9000000AE0E7A800002000000000CDCCCC3DF6
:102FA0006F1283BB0AD7A3BB10B5044600F012F81A
:102FB0000748017829B10220012903D0042901D052
:102FC00010BD002084F8BC0084F8A00110BD0000F2
:102FD000A8000020F0B52249026800240D78937AF9
:102FE000012D2AD10A891F4E521C92B20A8190EDFE
:102FF000320A41F27075B0EEC00A10EE107AB74294
:103000000DDA90ED6D0AB0EEC00A10EE100AB04273
:1030100005DA4889642806D2401C488103E0AA42A8
:1030200001D2521C0A8190B2A84204D24889642875
:1030300001D2022B12D14C810C81022B02D0032B26
:1030400002D003E00C7001E004200870487818B941
:10305000087808B10120087008784870F0BD0000B9
:10306000A8000020CDCCCC3D10B504462DED028B40
:10307000406890ED010A84ED6D0AD4F8F000B4F8D0
:10308000A211008800F08EFA84ED6B0AA06890ED22
:10309000010A84ED6F0A606890ED000A84ED340A3D
:1030A000E068B4F8BE10008800F07CFA84ED320AC3
:1030B00094ED6B0AFDF738F9A068D0ED020A20EE16
:1030C000208A94ED6B0AFDF76BF9A068D0ED000A39
:1030D00000EE608A84ED368ABDEC028B10BD0000E4
:1030E0002DE9F04104462DED028BFFF7ABFEE060C9
:1030F000FFF7A0FEC4F8F000FFF7A0FE206000205C
:1031000084F8BD009FED328A84F8BC0084F8A101E8
:1031100084F8A00104F11000B0EE482AF0EE481A3D
:10312000B2EE0E1AF0EE480AB2EE040A0646FFF7B7
:10313000EFFE04F59270B0EE482AF0EE481AB2EEB7
:103140000E1AF0EE480AB2EE040A0546FFF7E0FE5A
:1031500004F5AA70DFED1F0A9FED1F0A1F4A002128
:103160000746FFF70FFB3046FFF7BCFE04F14000B7
:10317000FFF7B8FE04F17000FFF7E4FA04F1F40081
:10318000FFF7B0FE2846FFF7ADFE3846FFF7DAFA44
:103190002046FFF769FF94ED340A84ED350A94ED7B
:1031A000320A84ED330A94ED360A84ED370A94ED41
:1031B0006D0A84ED6E0A94ED6B0A84ED6C0A94ED51
:1031C0006F0A84ED700ABDEC028BBDE8F08100004F
:1031D0000000000000401C460060EA469C410008D8
:1031E00090F8BD2090F8BC1012B141B1012A03D073
:1031F00001290FD0022A16D0022910D013E0B0F90D
:10320000EC2000EE102AB8EEC00A80ED3A0A80EDFC
:10321000390A08E090ED340A80ED350A03E090EDBC
:10322000320A80ED330A80F8BD1090F8A12190F8A1
:10323000A01112B141B1012A03D001290FD0022AF5
:1032400016D0022910D013E0B0F9D02100EE102AD8
:10325000B8EEC00A80ED730A80ED720A08E090EDC6
:103260006D0A80ED6E0A03E090ED6B0A80ED6C0A4A
:1032700080F8A1117047002809D090ED360A80ED42
:10328000370ABDEEC00A10EE101AA0F8E010704721
:1032900010B504001BD094ED331AD4ED300A94ED30
:1032A0002F0A04F13400FFF7D1FD84ED340AF0EE6B
:1032B000400A94ED330A04F16400FFF7AFF984ED9E
:1032C000370ABDEEC00A10EE100AA4F8E00010BDE7
:1032D000F0B514680025204BB4F9046006F10A0724
:1032E000152F01D39E8100E09D81B4F9066006F19F
:1032F0000A07152F01D3DE8100E0DD81B3F90C5000
:10330000DFED160A00EE105AB4F90C409FED141AC6
:10331000B8EEC00A20EE200A00EE904AF8EEE00A6D
:1033200000EEC10ADFED0F0A9FED0F1A80ED000AD3
:10333000B3F90E0000EE100A1068B8EEC00AB0F93A
:103340000E0020EE200A00EE900AF8EEE00A00EEF1
:10335000810A81ED000AF0BDA8000020ACC5A7B627
:1033600017B751389C53C9B652491D39002815D09A
:10337000D0ED300A30EE800A80ED300AD0ED2D0A13
:10338000B4EEE00AF1EE10FA06DCD0ED2E0AB4EE4F
:10339000E00AF1EE10FA01D2C0ED300A70470000E9
:1033A0002DED028B82B0C92000F0A2FC3348FFF75C
:1033B00097FE324C9FED328A324E04F10C0804F134
:1033C000F0072E48FFF7F0FD2C48FFF709FF2B48C8
:1033D000FFF74AFE294D8DED008A8DED018A2A46C0
:1033E00001A96846FFF7A6FD95F8BC0010B10228B8
:1033F00005D009E09DED000A85ED390A04E09DED58
:10340000000A4046FFF7B2FF95F8A00110B102286C
:1034100005D009E09DED010A85ED720A04E09DEDFD
:10342000010A3846FFF7A2FF144D95F8BC0010B111
:10343000022804D006E04046FFF71DFF02E04046A8
:10344000FFF726FF95F8A00110B1022804D006E08E
:103450003846FFF710FF02E03846FFF719FFB4F9CE
:10346000EC007080B4F9D011B1800023B6F90620C9
:10347000FDF7E4F8012000F03BFCA2E70443002044
:1034800000000000A80000200B4A0C4C0C4B9FEDE4
:103490000D0A0D4D0D49DFED0E0A0868904201DA64
:1034A000A042FADC984202DB81ED000AF5E7A8426F
:1034B000F3DCC1ED000AF0E70080B1430000A0405A
:1034C000000052430000524300002F430000002040
:1034D00000002F43B4EEE01AF1EE10FA0FD371EEB4
:1034E000601AB4EEC10AF1EE10FA03DC08E000BF86
:1034F00030EE610AB4EEC10AF1EE10FAF8DC704762
:10350000B4EEE00AF1EE10FA02D3704730EE210A71
:10351000B4EEE00AF1EE10FAF8D37047FDF78EFF33
:10352000FFF79EF9FEF7A8FFFEF740FFFEF7FAFE51
:10353000FEF71AFFFFF718F8FFF752F8FFF730F819
:10354000FEF7EAFFFFF74AFC00F0A8FA104C012250
:1035500091022046FDF75EFF0122D1022046FDF7D1
:1035600059FF012211032046FDF754FF0948FEF7D9
:10357000FFFA0848FEF738FB0A20FDF741FEFEF788
:103580003BFF00F030F80220FDF73AFEFBE70000B9
:10359000001C02405C03002001460020842900D06A
:1035A000C81C7047401AB0F5805F03DDA0F5F850E5
:1035B000FF3805E010F5805F02DA41F6FF7108443C
:1035C00000EE100ADFED030AB8EEC00A20EE200A72
:1035D00070470000DB0F493A10B500B9012000F038
:1035E00087FB002010BD10B500F0A8FB002010BD27
:1035F0007FB50D4604464169B0F9080081B1A16963
:1036000071B1FFF7C9FFD4E905128DE80700D4E9CD
:1036100000102B46226900F0BAFC039004B070BD84
:10362000FFF7BAFF03A9CDE90001208A2B4682B239
:10363000D4E9001000F07EFC012801D00020EDE765
:103640000398EBE72DE9F041184C0F460546E66874
:103650002068001D00F084FA38B9206890F82C101A
:1036600001208840216981432161681C07D137B15D
:103670002168BDE8F0410E48091D00F0B5BA206888
:103680003544B5424560216805D2A06BBDE8F041E4
:10369000091D00F091BA606B091D00F08DFAA06A57
:1036A000854200D2A562BDE8F08100004000002004
:1036B000F00600202DE9F041054600F0A1FA2E4C5D
:1036C000A068401CA06020682C4F10B1606940B316
:1036D0002DE02560A068012829D1002606EB860090
:1036E00007EB800000F05AFA761C072EF6D3234829
:1036F0008C3000F053FA2148A03000F04FFA1F48F8
:10370000B43000F04BFA1D48C83000F047FA1B48AF
:10371000DC3000F043FA19488C3060631430A06349
:1037200005E02068E96AC06A884200D82560606ABE
:10373000401C6062E96A01202269884010432061D0
:1037400001EB810007EB8000291D00F04DFA00F02D
:1037500077FA606900280CD02068E96AC06A88425C
:1037600007D207494FF080500860BFF34F8FBFF377
:103770006F8FBDE8F081000040000020140600209B
:1037800004ED00E010B5044690F8510058B101284E
:103790000CD002280FD0502080F31188BFF34F8F38
:1037A000BFF36F8FFEE7206B00F05EFA2046BDE8A6
:1037B000104000F059BA10BD10484FF47051420744
:1037C00006D0C01D0D4920F00700411AC1F5705107
:1037D0000B4A00230144C2E900030839183A21F0DA
:1037E000070111604B600B600B1AC0E90013936076
:1037F0004FF0004053605061704700000407002004
:1038000094000020144E154CA6F1C8074FF08058C4
:10381000DFF84C9012E000BF00F0F2F9F068C568E4
:10382000281D00F09DF9A068401EA0606068401E41
:10383000606000F005FA2846FFF7A4FF60680028E2
:10384000EAD138680128F9D9C9F80080BFF34F8F51
:10385000BFF36F8FF2E70000DC060020400000207D
:1038600004ED00E02DE9F0479A46DDE90984814640
:103870006FF00303206B03EB82021044089E20F0DC
:103880000707780707D0502080F31188BFF34F8FC8
:10389000BFF36F8FFEE7002561B1002023180A5C9B
:1038A00083F834200A5C12B1401C1028F6D384F847
:1038B000435001E084F83450072E00D30626E66218
:1038C000C4E91165201D00F074F904F1180000F03E
:1038D00070F92461C6F107006462A061E56484F8B0
:1038E000505052464946384600F0C0F82060B8F1C2
:1038F000000F01D0C8F80040BDE8F08730B511498D
:1039000000E011460A688242FBD34B685C1884428F
:1039100003D1406818444860084643681C18944224
:1039200009D1084C183C2468A24209D052681A44B4
:1039300042600A6812680260814200D0086030BDAF
:103940000460F9E7940000200648416B096829B13A
:10395000416BC968C9684968816270474FF0FF319F
:10396000FAE700004000002008484068401C4FF083
:10397000500080F3118804D0BFF34F8FBFF36F8FD7
:10398000FEE7BFF34F8FBFF36F8FFEE79C00002071
:103990002DE9F0410546002700F006FA324E306866
:1039A00008B9FFF709FF706905424ED1C5B3083564
:1039B00068070ED005F00700C0F10800054468074D
:1039C00007D0502080F31188BFF34F8FBFF36F8F64
:1039D000FEE72DB37068854237D82348183001467A
:1039E0000C6801E020460C466168A94202D22168B9
:1039F0000029F7D131688C4227D00768216801601F
:103A000060680837411B10290FD96019420708D098
:103A1000502080F31188BFF34F8FBFF36F8FFEE705
:103A200013E041606560FFF769FF61687068401AE4
:103A30007060B268904200D2B060706901430020AB
:103A4000C4E90001F068401CF06000F03FFB78071B
:103A500007D0502080F31188BFF34F8FBFF36F8FD3
:103A6000FEE73846BDE8F0817C00002010B5031F5A
:103A70004FF080741C601B1F21F001011960191F99
:103A8000044B0B6014390A60091F6FF002024438BE
:103A90000A6010BD69390008FEE7000002492422CF
:103AA000A1F12400FEF79CBEEE050020F0B5002831
:103AB00055D0002953D00278437842EA0322C2F35A
:103AC0000A020A8043788478DB0843EA4413C3F38C
:103AD0000A034B808478C578A40944EA85040579F3
:103AE00044EA8524C4F30A048C80057946796D087C
:103AF00045EAC615C5F30A05CD804679C6F3011619
:103B00008E724679B609CE728679C77946EA07265B
:103B10008E81067A477A46EA0726CE81867AC77A68
:103B200046EA07260E82067B8E74467BCE74867B21
:103B3000C77B46EA07268E82067C407CA2F580621F
:103B40000A80A3F580634B80A4F5806446EA0020D8
:103B50008C80A5F58065CD80A0F580600881F0BDE2
:103B6000D0E9013201699A60D0E901235A604A68BC
:103B7000824201D182684A60002202610868401EC8
:103B80000860086870470000034B036003F15400AD
:103B90000860802010607047B800002000F1080124
:103BA0004FF0FF32C0E90112C160016100210160E4
:103BB000704700210161704730B50B685A1C02D074
:103BC00000F1080202E0026904E022465468256818
:103BD0009D42FAD953684B6099608A6051600861D0
:103BE0000168491C016030BD42684A6093688B607F
:103BF00093685960916008610168491C01607047D1
:103C0000502080F31188BFF34F8FBFF36F8F0A49A5
:103C10004868401C486001280CD10848006810F032
:103C2000FF0F07D0502080F31188BFF34F8FBFF3F1
:103C30006F8FFEE7704700009C00002004ED00E05D
:103C40000849486828B1401E486001D180F31188B6
:103C50007047502080F31188BFF34F8FBFF36F8FF1
:103C6000FEE700009C00002070B500282AD0164D09
:103C7000A0F1080460686969084207D1502080F308
:103C80001188BFF34F8FBFF36F8FFEE722683AB101
:103C9000502080F31188BFF34F8FBFF36F8FFEE783
:103CA0008843606000F080F8606869680844686074
:103CB0002046FFF723FE2869401C2861BDE87040BC
:103CC00000F004BA70BD00007C0000204FF0E0203E
:103CD00000210161816105494FF47A720968B1FBE5
:103CE000F2F1491E41610721016170473C0000204B
:103CF00010B5020014D00F48006B38B1502080F38B
:103D00001188BFF34F8FBFF36F8FFEE700F04CF8C1
:103D100000211046FFF796FC00F0D8F9002807D1E3
:103D200005494FF080500860BFF34F8FBFF36F8F8E
:103D300010BD00004000002004ED00E010B586B08A
:103D40000024039405AA04A903A80494FFF71CFF08
:103D5000DDE903010094CDE9011000230EA1104814
:103D6000059A00F014F90F490028C86211D05020BC
:103D700080F31188BFF34F8FBFF36F8F4FF0FF3089
:103D8000886201204861CC6006B0BDE8104000F0B8
:103D900041B806B010BD000049444C450000000089
:103DA00005380008400000200248016B491C0163EF
:103DB00070470000400000201448016B11B1012140
:103DC000C16170470021C1610169B1FA81F1C1F19E
:103DD0001F0101EB81020E4951F822306BB101EB5A
:103DE000820101F108034A6852684A609A4201D18F
:103DF00052684A60D16801607047502080F3118892
:103E0000BFF34F8FBFF36F8FFEE70000400000202D
:103E1000140600201CB537480168374A914207D183
:103E2000502080F31188BFF34F8FBFF36F8FFEE7F1
:103E300000683149491E884207D1502080F311881B
:103E4000BFF34F8FBFF36F8FFEE72C4908780190C7
:103E5000FF20087008788DF800009DF800009DF89C
:103E6000002000F0F000904207D0502080F311882D
:103E7000BFF34F8FBFF36F8FFEE79DF80000204C1C
:103E800000F0500020700720A06005E09DF80020A1
:103E900052008DF80020401E9DF800201206F5D437
:103EA000A060032807D0502080F31188BFF34F8F04
:103EB000BFF36F8FFEE74FF44070A0600198087069
:103EC0000C482030016841F470010160016841F044
:103ED00070410160FFF7FAFE00206060FCF7C8F94E
:103EE0000848016841F040410160FCF7ADF900204D
:103EF0001CBD000000ED00E071C20F4100E400E0D5
:103F00009C00002034EF00E010B5502080F31188B1
:103F1000BFF34F8FBFF36F8F00F072F818B10449F1
:103F20004FF080500860002080F3118810BD000021
:103F300004ED00E02DE9FF5F8346DDE90E87994639
:103F400016468A469000FFF723FD05001CD054203A
:103F5000FFF71EFD040014D00020256384F85100F3
:103F6000CDE90240CDE900874B46324651465846DE
:103F7000FFF778FC2046FFF79DFB012004B0BDE869
:103F8000F09F2846FFF770FE4FF0FF30F6E7F0B5E0
:103F900085B0DDE90B640A9DA6B1DCB1542700971A
:103FA0002663022684F85160002604AFCDE902465C
:103FB000CDE90057FFF756FC2046FFF77BFB04983E
:103FC00005B0F0BD502080F31188BFF34F8FBFF3D1
:103FD0006F8FFEE7502080F31188BFF34F8FBFF340
:103FE0006F8FFEE70548416919B1006B18B10020D9
:103FF00070470120704702207047000040000020F9
:104000002DE9F0412F4C0026206B28B1A069401CFF
:10401000A0613046BDE8F081E5686D1CE56013D114
:10402000606B006838B1502080F31188BFF34F8F68
:10403000BFF36F8FFEE7606BA16B6163A063206AC3
:10404000401C2062FFF780FCA06ADFF87C8085427C
:1040500009D3606B0068A0B1606BC068C7687868FE
:10406000854211D2A0622068C06A00EB800158F836
:104070002100012800D90126E0690028C9D00126C5
:10408000C7E74FF0FF30EDE7381DFFF769FDB86A6D
:1040900018B107F11800FFF763FDF96A01202269E2
:1040A00088401043206101EB810108EB8100391D3C
:1040B000FFF79AFDF86A2168C96A8842C9D30126C8
:1040C000C7E7000040000020140600202DE9F0475B
:1040D0002C4D00242746286B38B1FFF791FD286B43
:1040E000401E2863286B40B146E0502080F31188C1
:1040F000BFF34F8FBFF36F8FFEE7A968224E0120F9
:10410000D1B3A6F1B40980463068E8B1F068C4685C
:1041100004F11800FFF724FD201DFFF721FDE06AE0
:104120002A6908FA00F11143296100EB800109EBCB
:104130008100211DFFF758FDE06A2968C96A88429D
:10414000E2D3C5F81C80DFE70CB1FFF7FDFBAC69DB
:1041500044B14646FFF754FF00B1EE61641EF9D149
:104160000020A861E86938B10849012738070860CC
:10417000BFF34F8FBFF36F8FFFF762FD3846BDE887
:10418000F087000040000020C806002004ED00E099
:104190004FF00000E1EE100A7047000000002042DE
:1041A000CDCC4C3E00002041844A00084128000844
:1041B000000000000000000080000000000000007F
:1041C00000000000584A0008993A0008FDFF00006E
:1041D000000000008000000000000000000000005F
:1041E0006C4A000889340008FDFF00000000000050
:1041F000800000000000000000000000604A00088D
:10420000D92D0008FDFF0000000000008000000024
:104210000000000000000000784A0008A1330008F8
:10422000020000000000000000020000000000008A
:104230000000000000061016000610160000000026
:104240000000000001020304060708090000000046
:104250000102030400000000920E493CB10AC93C6F
:104260002BC3163D2EFB483D752B7B3D04A9963D87
:1042700080B6AF3D36BDC83D2FBCE13D73B2FA3DBF
:1042800087CF093E8340163EB5AB223EA2102F3E9B
:10429000CF6E3B3EC2C5473E0115543E135C603EA7
:1042A0007F9A6C3ECCCF783EC07D823E938E883E16
:1042B000229A8E3E32A0943E86A09A3EE59AA03E77
:1042C000128FA63ED47CAC3EEF63B23E2A44B83E89
:1042D000491DBE3E15EFC33E53B9C93ECA7BCF3E12
:1042E0004136D53E80E8DA3E4F92E03E7533E63EF9
:1042F000BBCBEB3EEA5AF13ECBE0F63E275DFC3EFF
:10430000E4E7003F3D9C033F824B063F9BF5083F9F
:104310006B9A0B3FDA390E3FCDD3103F2A68133F1B
:10432000D9F6153FC07F183FC6021B3FD17F1D3F06
:10433000CBF61F3F9967223F25D2243F5636273FB1
:104340001594293F4AEB2B3FDE3B2E3FBB85303F88
:10435000C9C8323FF304353F233A373F4268393FFB
:104360003B8F3B3FF9AE3D3F67C73F3F70D8413F72
:1043700001E2433F03E4453F65DE473F12D1493F39
:10438000F8BB4B3F029F4D3F207A4F3F3D4D513F81
:104390004918533F31DB543FE595563F5348583F4A
:1043A0006AF2593F1A945B3F532D5D3F05BE5E3F55
:1043B0002146603F97C5613F5A3C633F59AA643F1D
:1043C000880F663FD86B673F3CBF683FA7096A3FCD
:1043D0000C4B6B3F5E836C3F93B26D3F9ED86E3F3C
:1043E00073F56F3F0809713F5213723F4714733FD3
:1043F000DD0B743F0BFA743FC6DE753F07BA763F9C
:10440000C58B773FF853783F9812793F9DC7793F26
:1044100002737A3FBE147B3FCDAC7B3F283B7C3F91
:10442000C9BF7C3FAC3A7D3FCCAB7D3F23137E3F81
:10443000B0707E3F6DC47E3F580E7F3F6D4E7F3F14
:10444000AB847F3F0FB17F3F97D37F3F43EC7F3FEC
:1044500011FB7F3F0000803F11FB7F3F43EC7F3F1C
:1044600097D37F3F0FB17F3FAB847F3F6D4E7F3F40
:10447000580E7F3F6DC47E3FB0707E3F23137E3F5A
:10448000CCAB7D3FAC3A7D3FC9BF7C3F283B7C3FF6
:10449000CDAC7B3FBE147B3F02737A3F9DC7793F13
:1044A0009812793FF853783FC58B773F07BA763F2C
:1044B000C6DE753F0BFA743FDD0B743F4714733F44
:1044C0005213723F0809713F73F56F3F9ED86E3FDC
:1044D00093B26D3F5E836C3F0C4B6B3FA7096A3F05
:1044E0003CBF683FD86B673F880F663F59AA643F5F
:1044F0005A3C633F97C5613F2146603F05BE5E3F22
:10450000532D5D3F1A945B3F6AF2593F5348583F21
:10451000E595563F31DB543F4918533F3D4D513FE0
:10452000207A4F3F029F4D3FF8BB4B3F12D1493F8E
:1045300065DE473F03E4453F01E2433F70D8413F1A
:1045400067C73F3FF9AE3D3F3B8F3B3F4268393F36
:10455000233A373FF304353FC9C8323FBB85303F6C
:10456000DE3B2E3F4AEB2B3F1594293F5636273F23
:1045700025D2243F9967223FCBF61F3FD17F1D3FB5
:10458000C6021B3FC07F183FD9F6153F2A68133F6C
:10459000CDD3103FDA390E3F6B9A0B3F9BF5083FA6
:1045A000824B063F3D9C033FE4E7003F275DFC3E16
:1045B000CBE0F63EEA5AF13EBBCBEB3E7533E63E2E
:1045C0004F92E03E80E8DA3E4136D53ECA7BCF3E90
:1045D00053B9C93E15EFC33E491DBE3E2A44B83EFD
:1045E000EF63B23ED47CAC3E128FA63EE59AA03E6D
:1045F00086A09A3E32A0943E229A8E3E938E883EAA
:10460000C07D823ECCCF783E7F9A6C3E135C603E8C
:104610000115543EC2C5473ECF6E3B3EA2102F3E11
:10462000B5AB223E8340163E87CF093E73B2FA3DBA
:104630002FBCE13D36BDC83D80B6AF3D04A9963DD7
:10464000752B7B3D2EFB483D2BC3163DB10AC93C63
:10465000920E493C00000000920E49BCB10AC9BC50
:104660002BC316BD2EFB48BD752B7BBD04A996BD83
:1046700080B6AFBD36BDC8BD2FBCE1BD73B2FABDBB
:1046800087CF09BE834016BEB5AB22BEA2102FBE97
:10469000CF6E3BBEC2C547BE011554BE135C60BEA3
:1046A0007F9A6CBECCCF78BEC07D82BE938E88BE12
:1046B000229A8EBE32A094BE86A09ABEE59AA0BE73
:1046C000128FA6BED47CACBEEF63B2BE2A44B8BE85
:1046D000491DBEBE15EFC3BE53B9C9BECA7BCFBE0E
:1046E0004136D5BE80E8DABE4F92E0BE7533E6BEF5
:1046F000BBCBEBBEEA5AF1BECBE0F6BE275DFCBEFB
:10470000E4E700BF3D9C03BF824B06BF9BF508BF9B
:104710006B9A0BBFDA390EBFCDD310BF2A6813BF17
:10472000D9F615BFC07F18BFC6021BBFD17F1DBF02
:10473000CBF61FBF996722BF25D224BF563627BFAD
:10474000159429BF4AEB2BBFDE3B2EBFBB8530BF84
:10475000C9C832BFF30435BF233A37BF426839BFF7
:104760003B8F3BBFF9AE3DBF67C73FBF70D841BF6E
:1047700001E243BF03E445BF65DE47BF12D149BF35
:10478000F8BB4BBF029F4DBF207A4FBF3D4D51BF7D
:10479000491853BF31DB54BFE59556BF534858BF46
:1047A0006AF259BF1A945BBF532D5DBF05BE5EBF51
:1047B000214660BF97C561BF5A3C63BF59AA64BF19
:1047C000880F66BFD86B67BF3CBF68BFA7096ABFC9
:1047D0000C4B6BBF5E836CBF93B26DBF9ED86EBF38
:1047E00073F56FBF080971BF521372BF471473BFCF
:1047F000DD0B74BF0BFA74BFC6DE75BF07BA76BF98
:10480000C58B77BFF85378BF981279BF9DC779BF22
:1048100002737ABFBE147BBFCDAC7BBF283B7CBF8D
:10482000C9BF7CBFAC3A7DBFCCAB7DBF23137EBF7D
:10483000B0707EBF6DC47EBF580E7FBF6D4E7FBF10
:10484000AB847FBF0FB17FBF97D37FBF43EC7FBFE8
:1048500011FB7FBF000080BF11FB7FBF43EC7FBF18
:1048600097D37FBF0FB17FBFAB847FBF6D4E7FBF3C
:10487000580E7FBF6DC47EBFB0707EBF23137EBF56
:10488000CCAB7DBFAC3A7DBFC9BF7CBF283B7CBFF2
:10489000CDAC7BBFBE147BBF02737ABF9DC779BF0F
:1048A000981279BFF85378BFC58B77BF07BA76BF28
:1048B000C6DE75BF0BFA74BFDD0B74BF471473BF40
:1048C000521372BF080971BF73F56FBF9ED86EBFD8
:1048D00093B26DBF5E836CBF0C4B6BBFA7096ABF01
:1048E0003CBF68BFD86B67BF880F66BF59AA64BF5B
:1048F0005A3C63BF97C561BF214660BF05BE5EBF1E
:10490000532D5DBF1A945BBF6AF259BF534858BF1D
:10491000E59556BF31DB54BF491853BF3D4D51BFDC
:10492000207A4FBF029F4DBFF8BB4BBF12D149BF8A
:1049300065DE47BF03E445BF01E243BF70D841BF16
:1049400067C73FBFF9AE3DBF3B8F3BBF426839BF32
:10495000233A37BFF30435BFC9C832BFBB8530BF68
:10496000DE3B2EBF4AEB2BBF159429BF563627BF1F
:1049700025D224BF996722BFCBF61FBFD17F1DBFB1
:10498000C6021BBFC07F18BFD9F615BF2A6813BF68
:10499000CDD310BFDA390EBF6B9A0BBF9BF508BFA2
:1049A000824B06BF3D9C03BFE4E700BF275DFCBE12
:1049B000CBE0F6BEEA5AF1BEBBCBEBBE7533E6BE2A
:1049C0004F92E0BE80E8DABE4136D5BECA7BCFBE8C
:1049D00053B9C9BE15EFC3BE491DBEBE2A44B8BEF9
:1049E000EF63B2BED47CACBE128FA6BEE59AA0BE69
:1049F00086A09ABE32A094BE229A8EBE938E88BEA6
:104A0000C07D82BECCCF78BE7F9A6CBE135C60BE88
:104A1000011554BEC2C547BECF6E3BBEA2102FBE0D
:104A2000B5AB22BE834016BE87CF09BE73B2FABDB6
:104A30002FBCE1BD36BDC8BD80B6AFBD04A996BDD3
:104A4000752B7BBD2EFB48BD2BC316BDB10AC9BC5F
:104A5000920E49BC000000804C45445F5245440022
:104A60004C45445F42554C45000000004C45445FB6
:104A7000475245454E00000067696D62616C5461A4
:104A8000736B000064656661756C745461736B00D0
:104A9000B04A000800000020B8000000C40100086F
:104AA000684B0008B8000020A04A0000E0010008A0
:104AB00000002F4300000000000000000000000084
:104AC00000000000000000000000000001000000E5
:104AD00010000000000000000000000000000000C6
:104AE0000000000000000000000000000024F400AE
:104AF00000000000000000000000000000000000B6
:104B000000000000000000000000000000000000A5
:104B10000000000000000000000000000000000095
:104B20000000000000000000000000000000000085
:104B30000000000000000000000000000000000075
:104B40000000000000000000000000000000000065
:104B5000AAAAAAAA000000000000000000000000AD
:084B600000000000000000004D
:040000050800018965
:00000001FF
